:02000000B52C1D
:100006000F3083120313FC004730FD00FD0B092857
:0A001600FC0B0928000000000800A0
:10002000FB14FB1F1A28FF30F300F200F100F00070
:08003000FA0DF20CFF3008008C
:08003800FA1FF213003008006A
:06004000000000000800B2
:0E004600F201F101F001F801F30100300800B1
:100054007B15FB1F34280130F300F201F101F0019C
:08006400FA0DF20CFF30080058
:0E006C00213083120313FD00FD0B3A2808001B
:10007A007C187328FC1844287C1992283D28A00172
:10008A007208031D64287108F2007008F1007808EC
:10009A00F000F801A0157208031D64287108F20027
:1000AA007008F100F001A01120167208031D6428DF
:1000BA007108F200F101A0157208031986282008B8
:1000CA00F302031D031C8A280310F21B7328F80D80
:1000DA00F00DF10DF20DF30B6A288A287B1B701CB8
:1000EA008E28F81F8E28F00A0319F10A0319F20A5A
:1000FA00031D8E28F20CF10CF00CF30A0319922856
:10010A008E280130FC00232095280230FC002A208A
:10011A0095280430FC001C2095280830FC0010208B
:04012A0000000800C9
:10012E0083120313C71B9D2886119E288615471B15
:10013E00A2280611A3280615C71AA7288610A828D4
:10014E008614471AAC280610AD2806143F18B1289D
:10015E000616B2280612861620208612C719B9284E
:10016E008611BA2886154719BE280611BF2806150E
:10017E00C718C3288610C42886144718C828061026
:10018E00C92806143F18CD280616CE280612861644
:10019E00202086123F1CD5280320D62836200800A2
:1001AE00A0017208031DEC287108F2007008F1001E
:1001BE00F001A0157208031DEC287108F200F10180
:1001CE00A011201672080319FA282008F302031D45
:1001DE00031CFE280310F21B0229F00DF10DF20D87
:1001EE00F30BF228FE280130FC00232005290230F3
:0E01FE00FC002A2005290430FC001C2008000B
:10020C008312031372087606A000F801F901730833
:10021C007702031C29297708FD007308F7007D0875
:10022C00F3007608FD007208F6007D08F2007508F0
:10023C00FD007108F5007D08F1007408FD007008E0
:10024C00F4007D08F00077080319A2297208FA005F
:10025C00F217F61777087302F70003195C290830B8
:10026C007702031C5229F7007408F9007508F40092
:10027C007608F500F60108307702031C5229F700C6
:10028C007408F9007508F400F50108307702031CB6
:10029C0052297A08F200A229770803195C29031065
:1002AC00F60CF50CF40CF90CF70B5529A01F692969
:1002BC00F909F409F509F609F90A0319F40A0319FD
:1002CC00F50A0319F60A7908F80774080318740F6D
:1002DC00F00775080318750FF10776080318760FE9
:1002EC00F207A01B8229031C9229F20CF10CF00CD2
:1002FC00F80CF30F92299E2903189629F809F00996
:10030C00F109F209F80A0319F00A0319F10A0319A1
:10031C00F20A8030FA069A290130FC003D20A4290B
:10032C000230FC003D20A4290430FC00D720A42975
:10033C000830FC001020A4290030FC00000008004C
:10034C000E3083120313FD00FD0BAA2900000800D8
:0E035C008312031341088A0040088200080043
:10036A007B14FB1FC029F201FA1FFF30F200F100D3
:0A037A00F000FA0DF20CFF3008004D
:10038400831203133F104608C70097203F14080048
:06039400FB15FF3008001C
:10039A0083120313FA017308031D7A147708031DE5
:1003AA00FA147A080319192A033A0319E4297A185C
:1003BA00E129F61F172A152AF21F152A172A720889
:1003CA008039FA00F21376088039F6137A0603198F
:1003DA00F2297A080319152A172A770873020319CA
:1003EA00F929031C0D2A112A760872020319002A18
:1003FA00031C0D2A112A750871020319072A031C06
:10040A000D2A112A740870020319192A0318112ACD
:10041A00FA080319172A152AFA080319152A172A96
:10042A000314080003100800031403150800080049
:10043A0083120313FB01FC01FA01730803194A2A08
:10044A00FA13F2178630F302F31B2E2A03192E2A07
:10045A004C2AF309F30A08307302031C3B2AF300FF
:10046A00F20DF2017308031D0310422A73080319DF
:10047A00422A0310F20CF30B3E2A7B1B721C4A2AF7
:10048A00031C4A2AF20A0319512AF101542A7B143D
:10049A00FB1F572AF101572A0130FC00592A003064
:1004AA00FC00592AFF30FC00FC0803195D2AB5211B
:0604BA007208F0000800CA
:1004C00083120313FB017308031D77080319B72A6E
:1004D00072087606FA007708F3077E30031C742A48
:1004E000F3020318BA2A772AF302031CBD2A720802
:1004F000F8007108FC007008FD00F817F6170310EB
:10050000F201F101F0011830A0007D1C912A74085D
:10051000F00775080318750FF10776080318760FB2
:10052000F207F20CF10CF00CF80CFC0CFD0C0310B3
:10053000A00B852AF21BA12AF80DF00DF10DF20D8A
:10054000F3037B1B701CB32AF81FB32AF00A0319AC
:10055000F10A0319F20A031DB32AF20CF10CF00C94
:10056000F30A0319BA2AFA1FF2130030BF2A013026
:100570002320BF2A02301020BF2A04302A20000086
:02058000080071
:10058200D32A803083120313C200E62AC030C2008D
:10059200E62A9430C200E62AD430C200E62A80302D
:1005A200C200E62A831203134208013A0319C22A3F
:1005B2004208023A0319C72A4208033A0319CA2A0F
:1005C2004208043A0319CD2AD02A4303F000420814
:1005D200F0077008C2007008C70097203F10C501DD
:1005E20045084407840000080319FF2A4508440708
:1005F20084000008C600C221C50AF12A3F1408007F
:10060200831203137408003A031D1C2B7508003A69
:10061200031D1C2B7608003A031D1C2B7708003A99
:10062200031D1C2BFF30F000FF30F1007F30F20081
:10063200FF30F300B72B8312031377080319AB2B98
:1006420073080319AE2B720876068039FA00F21786
:10065200F617A0017208F8007108FC007008FD008E
:100662007408FD027508031C750FFC027608031C52
:10067200760FF802F801FC01FD01031C472B031061
:10068200F20CF10CF00CF80C0130A0007708F30228
:10069200031C512B7E302007F3070318B12B562B76
:1006A2007E302007F307031CB42B1830FA07FD0D28
:1006B200FC0DF80DF00DF10DF20DA00D7408F00215
:1006C2007508031C750FF1027608031C760FF202FF
:1006D200760DA004201C6F2B7D147A2B7408F00772
:1006E20075080318750FF10776080318760AF207E2
:1006F2007D10FA031F307A05031D582B7B1B7D1CCE
:10070200A12B0310F00DF10DF20DA00D7408F002F3
:100712007508031C750FF1027608031C760FF202AE
:10072200760D20040139FD070318FC0A0319F80AA3
:10073200031DA12BF80CFC0CFD0CF30A0319B12BC1
:10074200FA1FF8137808F2007C08F1007D08F00027
:100752000030B62B0130CA21B62B02302320B62B33
:0E07620004301020B62B08302A2000000800BA
:1007700083120313FB01FC01FA0173080319F72B21
:10078000F2178E30F302F31BC82B0319C82BFA2B78
:10079000F309F30A08307302031CDD2BF300F10D9B
:1007A0007208F100F20108307302031CDD2BF10D19
:1007B000F1017308031D0310E52B73080319E52BE2
:1007C0000310F20CF10CF30BE02B7B1B711CEF2BD5
:1007D000031CEF2BF10A0319F20AF21B062CFA1F75
:1007E000092CF209F109F10A0319F20A092CF201A4
:1007F000F101092C7B14FB1F0C2CF201FA1F0C2CAD
:10080000FF30F200F100FA0DF20C0C2C0130FC006C
:100810000E2C0030FC000E2CFF30FC00FC080319ED
:0E082000122CB5217108F0007208F1000800DA
:10082E00831203137008F8007108F000F101F20151
:10083E00F301FB01FC019630F300FA017008F100A0
:0C084E007808F000F801F201D720080043
:0C085A00831203138030F606062108000C
:10086600AE218A110A128000840AC00A0319C10A3D
:08087600F003031D332C080000
:10087E00831203139F01C0309F042D09F0007008EE
:10088E0083169F051F179F1783124208F000F00D65
:10089E007010F00D7010F00D701070089F041F1482
:1008AE00A6211F151F1D5D2C0000592C1F101E08A0
:1008BE00F100F00183161E08F0040030F104080068
:1008CE008316031386120612061086100611861161
:1008DE008312861206128611061186100610032048
:1008EE000320032086140614861620208612032069
:1008FE0086162020861203208616202086120320BC
:10090E0006108616202086120320861620208612B8
:10091E008610861586162020861203208611061450
:10092E008616202086120610861620208612032098
:10093E008616202086120614861620208612032084
:10094E0006108616202086128615061586140614A5
:0C095E0086162020861203203F1408009B
:10096A008825831603138601FF3083128600FF3021
:10097A0083168500413083129F00803083169F00C2
:10098A0067240130C70097200C30C7009720C201A6
:10099A003F2470088312BD007108BE00172400307E
:1009AA00F4000030F5002030F6008130F7006022B4
:1009BA000030F400C030F5007F30F6008830F700D0
:1009CA0001237008B9007108BA007208BB007308E5
:1009DA00BC000130C2000130C3002E30C400C12265
:1009EA003908F0003A08F1003B08F2003C08F3002D
:1009FA00B82330307007C600C2212E30C600C2218B
:100A0A003908F0003A08F1003B08F2003C08F3000C
:100A1A00B82317247008F4007108F5007208F6006C
:100A2A007308F7003908F0003A08F1003B08F200B1
:100A3A003C08F3002D240030F4000030F50020308B
:100A4A00F6008230F70060220030F4000030F50032
:100A5A004030F6008430F70006211D227008C600D7
:100A6A00C2212030C600C2215630C600C221390830
:100A7A00F4003A08F5003B08F6003C08F70000309D
:100A8A00F0000030F1002030F2008030F300CD2178
:100A9A00013003180030F000700803195C2D023091
:100AAA00C2000130C3002730C400C122632D0230C6
:100ABA00C2000130C3002130C400C122CC2C642DF5
:100B1000213084001E3083120313F0006A30C000BD
:080B20000530C1003324080078
:0C0AD400503465347434693474340034D8
:0C0AE0004734723461346E3464340034E6
:020AEC000F34C5
:100AEE0056346F346C347434613467346534203466
:060AFE003D3420340034F9
:080B0400003400340034003419
:040B0C00003400347D
:02400E007A3BFB
:00000001FF
