:020000040000FA
:100000000C945D000C9485000C9485000C94850084
:100010000C9485000C9485000C9485000C9485004C
:100020000C9485000C9485000C9485000C9485003C
:100030000C9485000C9485000C9485000C9485002C
:100040000C9403060C9485000C9473060C944D06D6
:100050000C9485000C9485000C9485000C9485000C
:100060000C94A5060C9485000000000024002700D5
:100070002A0000000000250028002B0004040404CE
:100080000404040402020202020203030303030342
:10009000010204081020408001020408102001021F
:1000A00004081020000000080002010000030407FB
:1000B0000000000000000000C40711241FBECFEFA5
:1000C000D8E0DEBFCDBF11E0A0E0B1E0E2E3F9E1AE
:1000D00002C005900D92A239B107D9F723E0A2E939
:1000E000B1E001C01D92AE30B207E1F710E0CDE5FE
:1000F000D0E004C02197FE010E94910CCC35D107BD
:10010000C9F70E940C080C94970C0C94000090E026
:10011000FC01EC55FF4F2491FC01E057FF4F349157
:10012000FC01E458FF4FE491EE23C9F0222339F09B
:10013000233001F1A8F4213019F1223029F1F0E047
:10014000EE0FFF1FEE58FF4FA591B4918FB7F894B3
:10015000EC91611126C030953E233C938FBF0895EA
:100160002730A9F02830C9F0243049F78091800069
:100170008F7D03C0809180008F7780938000DFCFD8
:1001800084B58F7784BDDBCF84B58F7DFBCF809125
:10019000B0008F778093B000D2CF8091B0008F7D78
:1001A000F9CF3E2BDACF3FB7F8948091550290916A
:1001B0005602A0915702B091580226B5A89B05C0DF
:1001C0002F3F19F00196A11DB11D3FBFBA2FA92FD6
:1001D000982F8827BC01CD01620F711D811D911DD3
:1001E00042E0660F771F881F991F4A95D1F708953F
:1001F0008F929F92AF92BF92CF92DF92EF92FF9237
:100200004B015C010E94D3006B017C010E94D30072
:100210006C197D098E099F09683E7340810591051F
:10022000A8F321E0821A9108A108B10888EEC80E4F
:1002300083E0D81EE11CF11C81149104A104B104D7
:1002400029F7FF90EF90DF90CF90BF90AF909F90F5
:100250008F90089508950895AF92BF92CF92DF9244
:10026000EF92FF920F931F93CF93DF936C017B016B
:100270008B01040F151FEB015E01AE18BF08C017FC
:10028000D10759F06991D601ED91FC910190F0816F
:10029000E02DC6010995892B79F7C501DF91CF9132
:1002A0001F910F91FF90EF90DF90CF90BF90AF9094
:1002B0000895FC01538D448D252F30E0842F90E06C
:1002C000821B930B541710F0CF9608950197089551
:1002D000FC01918D828D981761F0A28DAE0FBF2F1A
:1002E000B11D5D968C91928D9F5F9F73928F90E070
:1002F00008958FEF9FEF0895FC01918D828D9817DF
:1003000031F0828DE80FF11D858D90E008958FEF1B
:100310009FEF0895FC01918D228D892F90E0805CE4
:100320009F4F821B91098F739927089589E592E069
:100330000E948A0121E0892B09F420E0822F089590
:1003400080E090E0892B29F00E94960181110C94A5
:1003500000000895FC01A48DA80FB92FB11DA35A68
:10036000BF4F2C91848D90E001968F739927848FD5
:10037000A689B7892C93A089B1898C9183708064F8
:100380008C93938D848D981306C00288F389E02D99
:1003900080818F7D80830895EF92FF920F931F934A
:1003A000CF93DF93EC0181E0888F9B8D8C8D981328
:1003B0001AC0E889F989808185FF15C09FB7F89434
:1003C000EE89FF896083E889F98980818370806480
:1003D00080839FBF81E090E0DF91CF911F910F91CB
:1003E000FF90EF900895F62E0B8D10E00F5F1F4FDA
:1003F0000F731127E02E8C8D8E110CC00FB607FCE9
:10040000FACFE889F989808185FFF5CFCE010E9476
:10041000AA01F1CFEB8DEC0FFD2FF11DE35AFF4F39
:10042000F0829FB7F8940B8FEA89FB898081806204
:10043000CFCFCF93DF93EC01888D8823B9F0AA89C1
:10044000BB89E889F9898C9185FD03C0808186FD8F
:100450000DC00FB607FCF7CF8C9185FFF2CF8081DE
:1004600085FFEDCFCE010E94AA01E9CFDF91CF91A8
:1004700008952091FA01260F3327331F21323105C9
:10048000ECF420911E02FC0190E080E0243069F041
:1004900082E00895A091FA012191AC0146525E4F8D
:1004A000A40FB52FB11D2C930196861798F3809158
:1004B000FA01680F6093FA0180E0089581E00895E1
:1004C00010921E0281E08093200210921F0261E0D0
:1004D00082E10E94870061E083E10E948700E9EBEE
:1004E000F0E080818E7F808380818D7F808388E4AF
:1004F0008093B80085E48093BC000895CF93DF9388
:1005000091E09093D9018823B9F0C091B800D091BF
:10051000BA008091BC008A7B8093BC0060E082E1DD
:100520000E94870060E083E10E9487000E946002D1
:10053000D093BA00C093B800DF91CF910895089589
:10054000E0914B0280914A02E81730F4F0E0EC545D
:10055000FE4F808190E008958FEF9FEF0895909176
:100560004B0280914A022FEF3FEF981748F4E92F92
:10057000F0E0EC54FE4F208130E09F5F90934B02FF
:10058000C901089580914A0290914B02891B990BF1
:100590000895CF92DF92EF92FF920F931F93CF9324
:1005A000DF937C01CB018A012091B301222389F0E2
:1005B000EB016B01C40ED51ECC15DD0569F0699108
:1005C000D701ED91FC910190F081E02DC7010995D3
:1005D000F3CF642F0E943902C801DF91CF911F91A0
:1005E0000F91FF90EF90DF90CF900895CF93DF931E
:1005F0001F92CDB7DEB769832091B3012223F9F0B2
:1006000020914802203258F021E030E0FC01338391
:10061000228390E080E00F90DF91CF910895809148
:100620004902E82FF0E0ED56FE4F998190838F5FED
:10063000809349028093480281E090E0ECCF61E032
:10064000CE0101960E943902F7CFCF92DF92EF924E
:10065000FF920F931F93CF93DF93FC01C48121E09E
:100660002093B301C0939201109249021092480264
:100670008385682B86EF92E00E94F602D0914802B3
:10068000D13208F092C00E94D3006B017C018091AE
:100690001E02811165C082E080931E0281E080937A
:1006A00020028FEF80931D0210924202D0934102EC
:1006B000A3E9B1E0E1E2F2E080E0D81385C0109256
:1006C000430280914302CC0FC82BC0934302809118
:1006D0001F02813009F07CC010921F020E94D300DB
:1006E0006B017C01809143028093BB008091D50116
:1006F0009091D601A091D701B091D801892B8A2B76
:100700008B2B99F00E94D3000091D5011091D60156
:100710002091D7013091D8016C197D098E099F096C
:100720000617170728073907E0F18091BC0083FD01
:10073000D9CF85EC8093BC000E94D3006B017C0173
:1007400080911E02823009F445C080911D028F3FC6
:1007500061F180911D02803241F180911D0225C01E
:100760008091D5019091D601A091D701B091D80187
:10077000892B8A2B8B2B09F48ACF0E94D3000091FE
:10078000D5011091D6012091D7013091D8016C1973
:100790007D098E099F09061717072807390708F0F2
:1007A00076CF8091D4010E947E021092490210926D
:1007B00048021092B301DF91CF911F910F91FF90EA
:1007C000EF90DF90CF9008959D9191938F5F75CFBB
:1007D00085EEB0CF8091D5019091D601A091D7013F
:1007E000B091D801892B8A2B8B2B09F4A9CF0E94B9
:1007F000D3000091D5011091D6012091D7013091FD
:10080000D8016C197D098E099F090617170728075B
:10081000390708F095CFC5CF089590E080E008959E
:10082000FB0101900020E9F73197AF01461B570B00
:10083000DC01ED91FC910280F381E02D09948F920F
:100840009F92AF92BF92EF92FF920F931F93CF931D
:10085000DF93CDB7DEB7A1970FB6F894DEBF0FBE1A
:10086000CDBF7C01FA01CB0119A2223008F42AE0A5
:100870008E010F5D1F4F822E912CB12CA12CBF0138
:10088000A50194010E946F0CF901CA016A300CF5B0
:10089000605DD8016E938D01232B242B252B79F7D6
:1008A00090E080E0109721F0BD01C7010E94100484
:1008B000A1960FB6F894DEBF0FBECDBFDF91CF91EA
:1008C0001F910F91FF90EF90BF90AF909F908F90EE
:1008D0000895695CDECF2F923F924F925F926F92A4
:1008E0007F928F929F92AF92BF92CF92DF92EF92C0
:1008F000FF921F93CF93DF93EC016A017B01722E6D
:10090000AB019601CB01B6010E946A0C6BE371E06A
:10091000811126C046015701E894B7F82FEF3FEF49
:100920004FE75FE7C501B4010E946A0C81110CC05A
:100930002FEF3FEF4FE75FE7C501B4010E94A00A28
:100940006FE371E0181664F02FEF3FEF4FE75FE4BD
:10095000C701B6010E94F80B1816B4F463E471E005
:10096000CE01DF91CF911F91FF90EF90DF90CF905C
:10097000BF90AF909F908F907F906F905F904F90BF
:100980003F902F900C9410042FEF3FEF4FE75FEC58
:10099000C701B6010E94A00A87FDE0CF20E030E049
:1009A000A901C701B6010E94A00A312C212C87FFA2
:1009B0000DC0E881F9810190F081E02D6DE2CE015A
:1009C00009951C01F7FAF094F7F8F09410E060E054
:1009D00070E080E09FE3711641F020E030E040E2FB
:1009E00051E40E94A50A1F5FF6CFA70196010E945D
:1009F000340A2B013C010E94170B4B015C012AE0D9
:100A0000BC01A401CE010E941F047C01E20CF31C76
:100A10001123E1F1C501B4010E94460B9B01AC0119
:100A2000C301B2010E94330A4B015C01E881F981E4
:100A30000190F081E02D6EE2CE010995E80EF91EDD
:100A4000115020F120E030E040E251E4C501B40152
:100A50000E94FD0B2B013C010E94170B4B01B12C96
:100A6000A12C2AE0B501A401CE010E941F04E80ECA
:100A7000F91EC501B4010E94460B9B01AC01C301E4
:100A8000B2010E94330A4B015C01DACFC701DF914A
:100A9000CF911F91FF90EF90DF90CF90BF90AF90DC
:100AA0009F908F907F906F905F904F903F902F908E
:100AB00008950F931F93CF938C01C62F0E94250397
:100AC0006C2F6460C8010E9425036C2F6B7FC801E6
:100AD0000E94250383EC90E00197F1F7CF911F91DD
:100AE0000F9108950F931F93CF93DF938C01D62F0F
:100AF000C42F607F642B0E94590580E1D89FB0010C
:100B000011246C2BC801DF91CF911F910F910C9490
:100B1000590540E061E082E093E00E9472058BE3BA
:100B20009FE10197F1F70895CF93DF93CDB7DEB73B
:100B300028970FB6F894DEBF0FBECDBF98E0E0E077
:100B4000F1E0DE01119601900D929A95E1F79091F6
:100B50000A03981708F48FEF90E0880F991F21E09F
:100B600030E02C0F3D1F820F931FFC0160816068F5
:100B700040E082E093E028960FB6F894DEBF0FBE07
:100B8000CDBFDF91CF910C94720541E00E947205B8
:100B900081E090E0089585ED8093BC008091D501BF
:100BA0009091D601A091D701B091D8010796A11DCF
:100BB000B11D23E0B695A795979587952A95D1F70E
:100BC0002091BC0024FD03C010921E0208954091A4
:100BD000D5015091D6016091D7017091D801452B74
:100BE000462B472B69F30097A105B10541F02AE296
:100BF0002A95F1F700C00197A109B109E1CF8091D1
:100C0000D4010C947E021F920F920FB60F92112402
:100C10002F933F938F939F93AF93BF9380915102F4
:100C200090915202A0915302B0915402309150021F
:100C300023E0230F2D3758F50196A11DB11D2093F8
:100C400050028093510290935202A0935302B093AA
:100C500054028091550290915602A0915702B09192
:100C600058020196A11DB11D809355029093560222
:100C7000A0935702B0935802BF91AF919F918F916B
:100C80003F912F910F900FBE0F901F90189526E85F
:100C9000230F0296A11DB11DD2CF1F920F920FB646
:100CA0000F9211242F933F934F935F936F937F93F2
:100CB0008F939F93AF93BF93EF93FF9389E592E058
:100CC0000E94AA01FF91EF91BF91AF919F918F91E7
:100CD0007F916F915F914F913F912F910F900FBE38
:100CE0000F901F9018951F920F920FB60F9211241C
:100CF0002F938F939F93EF93FF93E0916902F0916D
:100D00006A028081E0916F02F091700282FD1BC047
:100D10009081809172028F5F8F732091730282178E
:100D200041F0E0917202F0E0E75AFD4F958F809319
:100D30007202FF91EF919F918F912F910F900FBEB3
:100D40000F901F9018958081F4CF1F920F920FB6CD
:100D50000F9211242F933F934F935F936F937F9341
:100D60008F939F93AF93BF93EF93FF938091B900BD
:100D7000887F803609F44AC0F0F5883209F4A7C0AC
:100D800018F5803109F49BC0B8F4882309F4F9C040
:100D9000883009F494C0FF91EF91BF91AF919F917A
:100DA0008F917F916F915F914F913F912F910F9014
:100DB0000FBE0F901F901895883109F488C08032BB
:100DC00051F780931D0214C0803409F49DC040F493
:100DD0008033B9F38833F9F680931D0285ECB0C0F7
:100DE000803509F485C0883509F496C0883499F6B1
:100DF0000E94CB05D0CF883909F48CC038F58837EC
:100E000029F050F4883611F0803729F683E080937A
:100E10001E0210921C0257C0883809F47BC080392A
:100E200019F0803809F0B7CF80911C02803208F0A9
:100E300071C0E0911C0281E08E0F80931C028091B2
:100E4000BB00F0E0E450FE4F80833DC0803B39F0B2
:100E5000E0F4803A09F479C0883A09F09CCF84E044
:100E600080931E021092FB011092FA01E09146025B
:100E7000F091470209958091FA0181110FC081E03C
:100E80008093FA011092DA0109C0803C09F4A6CFE0
:100E9000883C09F4A3CF883B09F07DCFE091FB01AA
:100EA00081E08E0F8093FB01F0E0E652FE4F8081DF
:100EB0008093BB009091FB018091FA0129C0809141
:100EC00043028093BB0085EC8093BC0064CF90917B
:100ED000420280914102981758F5E091420281E068
:100EE0008E0F80934202F0E0EF5DFD4F8081E9CFED
:100EF000E091420281E08E0F809342028091BB001C
:100F0000F0E0EF5DFD4F80839091420280914102BD
:100F10009817C8F285E8D8CFE091420281E08E0FA1
:100F2000809342028091BB00F0E0EF5DFD4F808333
:100F30008091200281115CCF81E080931F0284EABE
:100F40008093BC0010921E0226CF85EC8093BC00DB
:100F500010921E0280911C02803230F4E0911C023B
:100F6000F0E0E450FE4F108260911C0270E0E091CE
:100F70004402F09145028CEF91E0099510921C0219
:100F80000ACF10921D0234CFE9E5F2E013821282FB
:100F900088EE93E0A0E0B0E084839583A683B783D6
:100FA0002FE031E03183208325EC30E03587248742
:100FB00024EC30E03787268720EC30E0318B208B23
:100FC00021EC30E0338B228B22EC30E0358B248B0C
:100FD00026EC30E0378B268B118E128E138E148EFA
:100FE000E6EFF2E01382128284839583A683B783AF
:100FF00081E291E091838083E2E0F3E01382128248
:1010000083E391E09183808387E2848380E1818719
:1010100082E0828713860895789484B5826084BDC7
:1010200084B5816084BD85B5826085BD85B58160EC
:1010300085BD80916E00816080936E00109281006A
:101040008091810082608093810080918100816025
:1010500080938100809180008160809380008091E6
:10106000B10084608093B1008091B0008160809372
:10107000B00080917A00846080937A0080917A0039
:10108000826080937A0080917A00816080937A00F8
:1010900080917A00806880937A001092C10010924B
:1010A0004B0210924A0210924902109248020E948A
:1010B00060028AE291E090934702809346028BE2BD
:1010C00091E090934502809344021092070380912F
:1010D0000C03823018F098E09093070380930A0382
:1010E00062E370E080E090E00E94F80060910D0300
:1010F00082E093E00E94250368EE73E080E090E0D8
:101100000E94F80060E382E093E00E945905CBE47E
:10111000D6E4CE010197F1F760E382E093E00E940C
:1011200059052197F1F760E382E093E00E945905A9
:1011300083E592E00197F1F760E282E093E00E949C
:10114000590560910703606240E082E093E00E94ED
:10115000720584E08093080340E06CE082E093E055
:101160000E9472050E94890582E08093090340E095
:1011700066E082E093E00E94720540E062E082E077
:1011800093E00E9472058BE39FE10197F1F788E0FD
:1011900080930D0360E082E093E00E9425030E94AB
:1011A000890580E00E94940567E471E082E093E0A5
:1011B0000E94100481E00E94940567E571E082E0DE
:1011C00093E00E94100460ED77E080E090E00E94E0
:1011D000F8000E94890580E00E94940567E671E0AE
:1011E00082E093E00E94100460ED77E080E090E000
:1011F0000E94F8000E94890563E771E082E093E0B5
:101200000E94100460ED77E080E090E00E94F8001A
:101210000E948905A8E0B1E08D9190E0FC01E057C3
:10122000FF4F249184589F4FFC018491882399F0AB
:1012300090E0880F991FFC01E859FF4FC591D491A8
:10124000FC01EE58FF4F859194918FB7F894E88197
:10125000E22BE8838FBFF1E0AB30BF07E9F6E09106
:101260006902F0916A0282E08083E0916502F09168
:1012700066021082E0916702F09168028FEC808331
:1012800010927102E0916D02F0916E0286E080830F
:10129000E0916B02F0916C02808180618083E0912B
:1012A0006B02F0916C02808188608083E0916B0218
:1012B000F0916C02808180688083E0916B02F091F4
:1012C0006C0280818F7D808380E4B82EC0E0D0E006
:1012D0000AE010E0C12CD12C7601B0927C00809104
:1012E0007A00806480937A0080917A0086FDFCCF3A
:1012F0006091780070917900072E000C880B990B93
:101300000E94480B20E030E040EA5BE30E94FD0BC6
:1013100020E030E048EC52E40E94FD0B9B01AC0160
:10132000C701B6010E94340A6B017C0162E370E0E0
:1013300080E090E00E94F8000150110971F620E071
:1013400030E040E251E4C701B6010E94A50A6B01FA
:101350007C01C0924C02D0924D02E0924E02F0927B
:101360004F0220E030E0A9010E94F80B87FD57C032
:1013700020E030E040E751E4C701B6010E94A00A36
:1013800018160CF44CC060E087E00E94870060E013
:1013900088E00E94870061E089E00E94870080E089
:1013A0000E94940564E871E082E093E00E941004DA
:1013B00040914C0250914D0260914E0270914F024B
:1013C00021E082E093E00E946B046BE871E082E030
:1013D00093E00E94100440914C0250914D026091A4
:1013E0004E0270914F0222E089E592E00E946B0468
:1013F0006FE871E089E592E00E94100468EE73E006
:1014000080E090E00E94F800209709F461CF0E94EC
:101410009601882309F45CCF0E94000059CF20E098
:1014200030E040E751E4C701B6010E94F80B1816FE
:10143000A4F420E030E040EF51E4C701B6010E947F
:10144000A00A181654F060E087E00E94870061E06F
:1014500088E00E94870060E09FCF61E087E00E9403
:10146000870060E0F5CF5058BB27AA270E944B0A9F
:101470000C94BE0B0E94B00B38F00E94B70B20F00A
:1014800039F49F3F19F426F40C94AD0B0EF4E0955B
:10149000E7FB0C94A70BE92F0E94CF0B58F3BA1768
:1014A000620773078407950720F079F4A6F50C947A
:1014B000F10B0EF4E0950B2EBA2FA02D0B01B90104
:1014C00090010C01CA01A0011124FF27591B99F0BA
:1014D000593F50F4503E68F11A16F040A22F232FC6
:1014E000342F4427585FF3CF469537952795A79516
:1014F000F0405395C9F77EF41F16BA0B620B730BBD
:10150000840BBAF09150A1F0FF0FBB1F661F771F2D
:10151000881FC2F70EC0BA0F621F731F841F48F4E2
:10152000879577956795B795F7959E3F08F0B0CF6B
:101530009395880F08F09927EE0F97958795089552
:101540000E94830B08F481E008950E94B90A0C946C
:10155000BE0B0E94B70B58F00E94B00B40F029F46C
:101560005F3F29F00C94A70B51110C94F20B0C94D3
:10157000AD0B0E94CF0B68F39923B1F3552391F380
:10158000951B550BBB27AA2762177307840738F0F2
:101590009F5F5F4F220F331F441FAA1FA9F335D04F
:1015A0000E2E3AF0E0E832D091505040E695001C03
:1015B000CAF72BD0FE2F29D0660F771F881FBB1FBD
:1015C000261737074807AB07B0E809F0BB0B802D9B
:1015D000BF01FF2793585F4F3AF09E3F510578F0C7
:1015E0000C94A70B0C94F20B5F3FE4F3983ED4F3FA
:1015F000869577956795B795F7959F5FC9F7880F9B
:10160000911D9695879597F90895E1E0660F771FEC
:10161000881FBB1F621773078407BA0720F0621B7D
:10162000730B840BBA0BEE1F88F7E09508950E94A8
:10163000D70B88F09F5798F0B92F9927B751B0F082
:10164000E1F0660F771F881F991F1AF0BA95C9F746
:1016500014C0B13091F00E94F10BB1E008950C94E8
:10166000F10B672F782F8827B85F39F0B93FCCF39B
:10167000869577956795B395D9F73EF490958095C3
:10168000709561957F4F8F4F9F4F0895E89409C0E3
:1016900097FB3EF490958095709561957F4F8F4FA5
:1016A0009F4F9923A9F0F92F96E9BB279395F695BB
:1016B000879577956795B795F111F8CFFAF4BB0F39
:1016C00011F460FF1BC06F5F7F4F8F4F9F4F16C09D
:1016D000882311F096E911C0772321F09EE8872F27
:1016E000762F05C0662371F096E8862F70E060E0E3
:1016F0002AF09A95660F771F881FDAF7880F96955C
:10170000879597F90895990F0008550FAA0BE0E8FF
:10171000FEEF16161706E807F907C0F012161306B3
:10172000E407F50798F0621B730B840B950B39F4F3
:101730000A2661F0232B242B252B21F408950A2659
:1017400009F4A140A6958FEF811D811D089597F999
:101750009F6780E870E060E008959FEF80EC089557
:1017600000240A9416161706180609060895002480
:101770000A9412161306140605060895092E0394FA
:10178000000C11F4882352F0BB0F40F4BF2B11F46E
:1017900060FF04C06F5F7F4F8F4F9F4F089557FDCD
:1017A0009058440F551F59F05F3F71F04795880FCF
:1017B00097FB991F61F09F3F79F087950895121666
:1017C00013061406551FF2CF4695F1DF08C0161612
:1017D00017061806991FF1CF8695710561050894C3
:1017E0000895E894BB2766277727CB0197F90895DA
:1017F0000E94830B08F48FEF08950E94100C0C9444
:10180000BE0B0E94B00B38F00E94B70B20F095235E
:1018100011F00C94A70B0C94AD0B11240C94F20B4B
:101820000E94CF0B70F3959FC1F3950F50E0551FA9
:10183000629FF001729FBB27F00DB11D639FAA2725
:10184000F00DB11DAA1F649F6627B00DA11D661F74
:10185000829F2227B00DA11D621F739FB00DA11D95
:10186000621F839FA00D611D221F749F3327A00D4F
:10187000611D231F849F600D211D822F762F6A2FEB
:1018800011249F5750409AF0F1F088234AF0EE0F50
:10189000FF1FBB1F661F771F881F91505040A9F77D
:1018A0009E3F510580F00C94A70B0C94F20B5F3F08
:1018B000E4F3983ED4F3869577956795B795F795B9
:1018C000E7959F5FC1F7FE2B880F911D9695879531
:1018D00097F908950E94830B880B990B0895A1E254
:1018E0001A2EAA1BBB1BFD010DC0AA1FBB1FEE1F9A
:1018F000FF1FA217B307E407F50720F0A21BB30BE5
:10190000E40BF50B661F771F881F991F1A9469F760
:1019100060957095809590959B01AC01BD01CF01BC
:101920000895EE0FFF1F0590F491E02D0994F894AF
:10193000FFCF000040001400540007080900000019
:1019400000CC012C01590119028A0168017C0100B7
:10195000000000F602C9020D049F02C202AF02A0FD
:101960000200000000C5052C010D040C046E616E20
:1019700000696E66006F76660050524553454E54BE
:101980004544204259203A200044414C49204142DC
:1019900044454C4C41544946005553544F204D3218
:1019A00020455345005741495420464F5220544545
:1019B0004D50202E2E0054656D703A20002043209B
:0419C000000D0A000C
:107E0000112484B714BE81FFF0D085E080938100F7
:107E100082E08093C00088E18093C10086E0809377
:107E2000C20080E18093C4008EE0C9D0259A86E02C
:107E300020E33CEF91E0309385002093840096BBD3
:107E4000B09BFECF1D9AA8958150A9F7CC24DD24C4
:107E500088248394B5E0AB2EA1E19A2EF3E0BF2EE7
:107E6000A2D0813461F49FD0082FAFD0023811F036
:107E7000013811F484E001C083E08DD089C08234E0
:107E800011F484E103C0853419F485E0A6D080C0E4
:107E9000853579F488D0E82EFF2485D0082F10E0AE
:107EA000102F00270E291F29000F111F8ED06801E7
:107EB0006FC0863521F484E090D080E0DECF843638
:107EC00009F040C070D06FD0082F6DD080E0C81688
:107ED00080E7D80618F4F601B7BEE895C0E0D1E017
:107EE00062D089930C17E1F7F0E0CF16F0E7DF06D8
:107EF00018F0F601B7BEE89568D007B600FCFDCFD4
:107F0000A601A0E0B1E02C9130E011968C91119780
:107F100090E0982F8827822B932B1296FA010C0160
:107F200087BEE89511244E5F5F4FF1E0A038BF0790
:107F300051F7F601A7BEE89507B600FCFDCF97BE46
:107F4000E89526C08437B1F42ED02DD0F82E2BD052
:107F50003CD0F601EF2C8F010F5F1F4F84911BD097
:107F6000EA94F801C1F70894C11CD11CFA94CF0C13
:107F7000D11C0EC0853739F428D08EE10CD085E9AC
:107F80000AD08FE07ACF813511F488E018D01DD067
:107F900080E101D065CF982F8091C00085FFFCCF94
:107FA0009093C60008958091C00087FFFCCF809118
:107FB000C00084FD01C0A8958091C6000895E0E648
:107FC000F0E098E1908380830895EDDF803219F02E
:107FD00088E0F5DFFFCF84E1DECF1F93182FE3DFCA
:107FE0001150E9F7F2DF1F91089580E0E8DFEE27F6
:047FF000FF270994CA
:027FFE00040479
:00000001FF
